{
  "_format": "hh-sol-artifact-1",
  "contractName": "PaymentNFT",
  "sourceName": "contracts/PaymentNFT.sol",
  "abi": [
    {
      "inputs": [],
      "stateMutability": "nonpayable",
      "type": "constructor"
    },
    {
      "inputs": [
        {
          "internalType": "address",
          "name": "sender",
          "type": "address"
        },
        {
          "internalType": "uint256",
          "name": "tokenId",
          "type": "uint256"
        },
        {
          "internalType": "address",
          "name": "owner",
          "type": "address"
        }
      ],
      "name": "ERC721IncorrectOwner",
      "type": "error"
    },
    {
      "inputs": [
        {
          "internalType": "address",
          "name": "operator",
          "type": "address"
        },
        {
          "internalType": "uint256",
          "name": "tokenId",
          "type": "uint256"
        }
      ],
      "name": "ERC721InsufficientApproval",
      "type": "error"
    },
    {
      "inputs": [
        {
          "internalType": "address",
          "name": "approver",
          "type": "address"
        }
      ],
      "name": "ERC721InvalidApprover",
      "type": "error"
    },
    {
      "inputs": [
        {
          "internalType": "address",
          "name": "operator",
          "type": "address"
        }
      ],
      "name": "ERC721InvalidOperator",
      "type": "error"
    },
    {
      "inputs": [
        {
          "internalType": "address",
          "name": "owner",
          "type": "address"
        }
      ],
      "name": "ERC721InvalidOwner",
      "type": "error"
    },
    {
      "inputs": [
        {
          "internalType": "address",
          "name": "receiver",
          "type": "address"
        }
      ],
      "name": "ERC721InvalidReceiver",
      "type": "error"
    },
    {
      "inputs": [
        {
          "internalType": "address",
          "name": "sender",
          "type": "address"
        }
      ],
      "name": "ERC721InvalidSender",
      "type": "error"
    },
    {
      "inputs": [
        {
          "internalType": "uint256",
          "name": "tokenId",
          "type": "uint256"
        }
      ],
      "name": "ERC721NonexistentToken",
      "type": "error"
    },
    {
      "inputs": [
        {
          "internalType": "address",
          "name": "owner",
          "type": "address"
        }
      ],
      "name": "OwnableInvalidOwner",
      "type": "error"
    },
    {
      "inputs": [
        {
          "internalType": "address",
          "name": "account",
          "type": "address"
        }
      ],
      "name": "OwnableUnauthorizedAccount",
      "type": "error"
    },
    {
      "anonymous": false,
      "inputs": [
        {
          "indexed": true,
          "internalType": "address",
          "name": "owner",
          "type": "address"
        },
        {
          "indexed": true,
          "internalType": "address",
          "name": "approved",
          "type": "address"
        },
        {
          "indexed": true,
          "internalType": "uint256",
          "name": "tokenId",
          "type": "uint256"
        }
      ],
      "name": "Approval",
      "type": "event"
    },
    {
      "anonymous": false,
      "inputs": [
        {
          "indexed": true,
          "internalType": "address",
          "name": "owner",
          "type": "address"
        },
        {
          "indexed": true,
          "internalType": "address",
          "name": "operator",
          "type": "address"
        },
        {
          "indexed": false,
          "internalType": "bool",
          "name": "approved",
          "type": "bool"
        }
      ],
      "name": "ApprovalForAll",
      "type": "event"
    },
    {
      "anonymous": false,
      "inputs": [
        {
          "indexed": true,
          "internalType": "address",
          "name": "minter",
          "type": "address"
        },
        {
          "indexed": true,
          "internalType": "uint256",
          "name": "tokenId",
          "type": "uint256"
        },
        {
          "indexed": false,
          "internalType": "uint256",
          "name": "amount",
          "type": "uint256"
        }
      ],
      "name": "NFTMinted",
      "type": "event"
    },
    {
      "anonymous": false,
      "inputs": [
        {
          "indexed": true,
          "internalType": "address",
          "name": "previousOwner",
          "type": "address"
        },
        {
          "indexed": true,
          "internalType": "address",
          "name": "newOwner",
          "type": "address"
        }
      ],
      "name": "OwnershipTransferred",
      "type": "event"
    },
    {
      "anonymous": false,
      "inputs": [
        {
          "indexed": true,
          "internalType": "address",
          "name": "from",
          "type": "address"
        },
        {
          "indexed": true,
          "internalType": "address",
          "name": "to",
          "type": "address"
        },
        {
          "indexed": true,
          "internalType": "uint256",
          "name": "tokenId",
          "type": "uint256"
        }
      ],
      "name": "Transfer",
      "type": "event"
    },
    {
      "inputs": [
        {
          "internalType": "address",
          "name": "to",
          "type": "address"
        },
        {
          "internalType": "uint256",
          "name": "tokenId",
          "type": "uint256"
        }
      ],
      "name": "approve",
      "outputs": [],
      "stateMutability": "nonpayable",
      "type": "function"
    },
    {
      "inputs": [
        {
          "internalType": "address",
          "name": "owner",
          "type": "address"
        }
      ],
      "name": "balanceOf",
      "outputs": [
        {
          "internalType": "uint256",
          "name": "",
          "type": "uint256"
        }
      ],
      "stateMutability": "view",
      "type": "function"
    },
    {
      "inputs": [
        {
          "internalType": "uint256",
          "name": "tokenId",
          "type": "uint256"
        }
      ],
      "name": "getApproved",
      "outputs": [
        {
          "internalType": "address",
          "name": "",
          "type": "address"
        }
      ],
      "stateMutability": "view",
      "type": "function"
    },
    {
      "inputs": [
        {
          "internalType": "address",
          "name": "owner",
          "type": "address"
        },
        {
          "internalType": "address",
          "name": "operator",
          "type": "address"
        }
      ],
      "name": "isApprovedForAll",
      "outputs": [
        {
          "internalType": "bool",
          "name": "",
          "type": "bool"
        }
      ],
      "stateMutability": "view",
      "type": "function"
    },
    {
      "inputs": [],
      "name": "name",
      "outputs": [
        {
          "internalType": "string",
          "name": "",
          "type": "string"
        }
      ],
      "stateMutability": "view",
      "type": "function"
    },
    {
      "inputs": [],
      "name": "owner",
      "outputs": [
        {
          "internalType": "address",
          "name": "",
          "type": "address"
        }
      ],
      "stateMutability": "view",
      "type": "function"
    },
    {
      "inputs": [
        {
          "internalType": "uint256",
          "name": "tokenId",
          "type": "uint256"
        }
      ],
      "name": "ownerOf",
      "outputs": [
        {
          "internalType": "address",
          "name": "",
          "type": "address"
        }
      ],
      "stateMutability": "view",
      "type": "function"
    },
    {
      "inputs": [],
      "name": "payAndMint",
      "outputs": [],
      "stateMutability": "payable",
      "type": "function"
    },
    {
      "inputs": [],
      "name": "renounceOwnership",
      "outputs": [],
      "stateMutability": "nonpayable",
      "type": "function"
    },
    {
      "inputs": [
        {
          "internalType": "address",
          "name": "from",
          "type": "address"
        },
        {
          "internalType": "address",
          "name": "to",
          "type": "address"
        },
        {
          "internalType": "uint256",
          "name": "tokenId",
          "type": "uint256"
        }
      ],
      "name": "safeTransferFrom",
      "outputs": [],
      "stateMutability": "nonpayable",
      "type": "function"
    },
    {
      "inputs": [
        {
          "internalType": "address",
          "name": "from",
          "type": "address"
        },
        {
          "internalType": "address",
          "name": "to",
          "type": "address"
        },
        {
          "internalType": "uint256",
          "name": "tokenId",
          "type": "uint256"
        },
        {
          "internalType": "bytes",
          "name": "data",
          "type": "bytes"
        }
      ],
      "name": "safeTransferFrom",
      "outputs": [],
      "stateMutability": "nonpayable",
      "type": "function"
    },
    {
      "inputs": [
        {
          "internalType": "address",
          "name": "operator",
          "type": "address"
        },
        {
          "internalType": "bool",
          "name": "approved",
          "type": "bool"
        }
      ],
      "name": "setApprovalForAll",
      "outputs": [],
      "stateMutability": "nonpayable",
      "type": "function"
    },
    {
      "inputs": [
        {
          "internalType": "bytes4",
          "name": "interfaceId",
          "type": "bytes4"
        }
      ],
      "name": "supportsInterface",
      "outputs": [
        {
          "internalType": "bool",
          "name": "",
          "type": "bool"
        }
      ],
      "stateMutability": "view",
      "type": "function"
    },
    {
      "inputs": [],
      "name": "symbol",
      "outputs": [
        {
          "internalType": "string",
          "name": "",
          "type": "string"
        }
      ],
      "stateMutability": "view",
      "type": "function"
    },
    {
      "inputs": [],
      "name": "tokenIdCounter",
      "outputs": [
        {
          "internalType": "uint256",
          "name": "",
          "type": "uint256"
        }
      ],
      "stateMutability": "view",
      "type": "function"
    },
    {
      "inputs": [
        {
          "internalType": "uint256",
          "name": "tokenId",
          "type": "uint256"
        }
      ],
      "name": "tokenURI",
      "outputs": [
        {
          "internalType": "string",
          "name": "",
          "type": "string"
        }
      ],
      "stateMutability": "view",
      "type": "function"
    },
    {
      "inputs": [
        {
          "internalType": "address",
          "name": "from",
          "type": "address"
        },
        {
          "internalType": "address",
          "name": "to",
          "type": "address"
        },
        {
          "internalType": "uint256",
          "name": "tokenId",
          "type": "uint256"
        }
      ],
      "name": "transferFrom",
      "outputs": [],
      "stateMutability": "nonpayable",
      "type": "function"
    },
    {
      "inputs": [
        {
          "internalType": "address",
          "name": "newOwner",
          "type": "address"
        }
      ],
      "name": "transferOwnership",
      "outputs": [],
      "stateMutability": "nonpayable",
      "type": "function"
    },
    {
      "inputs": [],
      "name": "withdraw",
      "outputs": [],
      "stateMutability": "nonpayable",
      "type": "function"
    }
  ],
  "bytecode": "0x60806040523480156200001157600080fd5b50336040518060400160405280600a81526020017f5061796d656e744e4654000000000000000000000000000000000000000000008152506040518060400160405280600481526020017f504e46540000000000000000000000000000000000000000000000000000000081525081600090816200009091906200047a565b508060019081620000a291906200047a565b505050600073ffffffffffffffffffffffffffffffffffffffff168173ffffffffffffffffffffffffffffffffffffffff16036200011a5760006040517f1e4fbdf7000000000000000000000000000000000000000000000000000000008152600401620001119190620005a6565b60405180910390fd5b6200012b816200013a60201b60201c565b506000600781905550620005c3565b6000600660009054906101000a900473ffffffffffffffffffffffffffffffffffffffff16905081600660006101000a81548173ffffffffffffffffffffffffffffffffffffffff021916908373ffffffffffffffffffffffffffffffffffffffff1602179055508173ffffffffffffffffffffffffffffffffffffffff168173ffffffffffffffffffffffffffffffffffffffff167f8be0079c531659141344cd1fd0a4f28419497f9722a3daafe3b4186f6b6457e060405160405180910390a35050565b600081519050919050565b7f4e487b7100000000000000000000000000000000000000000000000000000000600052604160045260246000fd5b7f4e487b7100000000000000000000000000000000000000000000000000000000600052602260045260246000fd5b600060028204905060018216806200028257607f821691505b6020821081036200029857620002976200023a565b5b50919050565b60008190508160005260206000209050919050565b60006020601f8301049050919050565b600082821b905092915050565b600060088302620003027fffffffffffffffffffffffffffffffffffffffffffffffffffffffffffffffff82620002c3565b6200030e8683620002c3565b95508019841693508086168417925050509392505050565b6000819050919050565b6000819050919050565b60006200035b620003556200034f8462000326565b62000330565b62000326565b9050919050565b6000819050919050565b62000377836200033a565b6200038f620003868262000362565b848454620002d0565b825550505050565b600090565b620003a662000397565b620003b38184846200036c565b505050565b5b81811015620003db57620003cf6000826200039c565b600181019050620003b9565b5050565b601f8211156200042a57620003f4816200029e565b620003ff84620002b3565b810160208510156200040f578190505b620004276200041e85620002b3565b830182620003b8565b50505b505050565b600082821c905092915050565b60006200044f600019846008026200042f565b1980831691505092915050565b60006200046a83836200043c565b9150826002028217905092915050565b620004858262000200565b67ffffffffffffffff811115620004a157620004a06200020b565b5b620004ad825462000269565b620004ba828285620003df565b600060209050601f831160018114620004f25760008415620004dd578287015190505b620004e985826200045c565b86555062000559565b601f19841662000502866200029e565b60005b828110156200052c5784890151825560018201915060208501945060208101905062000505565b868310156200054c578489015162000548601f8916826200043c565b8355505b6001600288020188555050505b505050505050565b600073ffffffffffffffffffffffffffffffffffffffff82169050919050565b60006200058e8262000561565b9050919050565b620005a08162000581565b82525050565b6000602082019050620005bd600083018462000595565b92915050565b61236a80620005d36000396000f3fe6080604052600436106101145760003560e01c8063715018a6116100a0578063b88d4fde11610064578063b88d4fde1461038b578063c87b56dd146103b4578063df42135b146103f1578063e985e9c5146103fb578063f2fde38b1461043857610114565b8063715018a6146102ca5780638da5cb5b146102e157806395d89b411461030c57806398bdf6f514610337578063a22cb4651461036257610114565b806323b872dd116100e757806323b872dd146101e75780633ccfd60b1461021057806342842e0e146102275780636352211e1461025057806370a082311461028d57610114565b806301ffc9a71461011957806306fdde0314610156578063081812fc14610181578063095ea7b3146101be575b600080fd5b34801561012557600080fd5b50610140600480360381019061013b9190611ad1565b610461565b60405161014d9190611b19565b60405180910390f35b34801561016257600080fd5b5061016b610543565b6040516101789190611bc4565b60405180910390f35b34801561018d57600080fd5b506101a860048036038101906101a39190611c1c565b6105d5565b6040516101b59190611c8a565b60405180910390f35b3480156101ca57600080fd5b506101e560048036038101906101e09190611cd1565b6105f1565b005b3480156101f357600080fd5b5061020e60048036038101906102099190611d11565b610607565b005b34801561021c57600080fd5b50610225610709565b005b34801561023357600080fd5b5061024e60048036038101906102499190611d11565b610761565b005b34801561025c57600080fd5b5061027760048036038101906102729190611c1c565b610781565b6040516102849190611c8a565b60405180910390f35b34801561029957600080fd5b506102b460048036038101906102af9190611d64565b610793565b6040516102c19190611da0565b60405180910390f35b3480156102d657600080fd5b506102df61084d565b005b3480156102ed57600080fd5b506102f6610861565b6040516103039190611c8a565b60405180910390f35b34801561031857600080fd5b5061032161088b565b60405161032e9190611bc4565b60405180910390f35b34801561034357600080fd5b5061034c61091d565b6040516103599190611da0565b60405180910390f35b34801561036e57600080fd5b5061038960048036038101906103849190611de7565b610923565b005b34801561039757600080fd5b506103b260048036038101906103ad9190611f5c565b610939565b005b3480156103c057600080fd5b506103db60048036038101906103d69190611c1c565b61095e565b6040516103e89190611bc4565b60405180910390f35b6103f96109c7565b005b34801561040757600080fd5b50610422600480360381019061041d9190611fdf565b610a81565b60405161042f9190611b19565b60405180910390f35b34801561044457600080fd5b5061045f600480360381019061045a9190611d64565b610b15565b005b60007f80ac58cd000000000000000000000000000000000000000000000000000000007bffffffffffffffffffffffffffffffffffffffffffffffffffffffff1916827bffffffffffffffffffffffffffffffffffffffffffffffffffffffff1916148061052c57507f5b5e139f000000000000000000000000000000000000000000000000000000007bffffffffffffffffffffffffffffffffffffffffffffffffffffffff1916827bffffffffffffffffffffffffffffffffffffffffffffffffffffffff1916145b8061053c575061053b82610b9b565b5b9050919050565b6060600080546105529061204e565b80601f016020809104026020016040519081016040528092919081815260200182805461057e9061204e565b80156105cb5780601f106105a0576101008083540402835291602001916105cb565b820191906000526020600020905b8154815290600101906020018083116105ae57829003601f168201915b5050505050905090565b60006105e082610c05565b506105ea82610c8d565b9050919050565b61060382826105fe610cca565b610cd2565b5050565b600073ffffffffffffffffffffffffffffffffffffffff168273ffffffffffffffffffffffffffffffffffffffff16036106795760006040517f64a0ae920000000000000000000000000000000000000000000000000000000081526004016106709190611c8a565b60405180910390fd5b600061068d8383610688610cca565b610ce4565b90508373ffffffffffffffffffffffffffffffffffffffff168173ffffffffffffffffffffffffffffffffffffffff1614610703578382826040517f64283d7b0000000000000000000000000000000000000000000000000000000081526004016106fa9392919061207f565b60405180910390fd5b50505050565b610711610efe565b610719610861565b73ffffffffffffffffffffffffffffffffffffffff166108fc479081150290604051600060405180830381858888f1935050505015801561075e573d6000803e3d6000fd5b50565b61077c83838360405180602001604052806000815250610939565b505050565b600061078c82610c05565b9050919050565b60008073ffffffffffffffffffffffffffffffffffffffff168273ffffffffffffffffffffffffffffffffffffffff16036108065760006040517f89c62b640000000000000000000000000000000000000000000000000000000081526004016107fd9190611c8a565b60405180910390fd5b600360008373ffffffffffffffffffffffffffffffffffffffff1673ffffffffffffffffffffffffffffffffffffffff168152602001908152602001600020549050919050565b610855610efe565b61085f6000610f85565b565b6000600660009054906101000a900473ffffffffffffffffffffffffffffffffffffffff16905090565b60606001805461089a9061204e565b80601f01602080910402602001604051908101604052809291908181526020018280546108c69061204e565b80156109135780601f106108e857610100808354040283529160200191610913565b820191906000526020600020905b8154815290600101906020018083116108f657829003601f168201915b5050505050905090565b60075481565b61093561092e610cca565b838361104b565b5050565b610944848484610607565b61095861094f610cca565b858585856111ba565b50505050565b606061096982610c05565b50600061097461136b565b9050600081511161099457604051806020016040528060008152506109bf565b8061099e84611382565b6040516020016109af9291906120f2565b6040516020818303038152906040525b915050919050565b60003411610a0a576040517f08c379a0000000000000000000000000000000000000000000000000000000008152600401610a0190612162565b60405180910390fd5b610a1633600754611450565b6007543373ffffffffffffffffffffffffffffffffffffffff167f3a8a89b59a31c39a36febecb987e0657ab7b7c73b60ebacb44dcb9886c2d5c8a34604051610a5f9190611da0565b60405180910390a360076000815480929190610a7a906121b1565b9190505550565b6000600560008473ffffffffffffffffffffffffffffffffffffffff1673ffffffffffffffffffffffffffffffffffffffff16815260200190815260200160002060008373ffffffffffffffffffffffffffffffffffffffff1673ffffffffffffffffffffffffffffffffffffffff16815260200190815260200160002060009054906101000a900460ff16905092915050565b610b1d610efe565b600073ffffffffffffffffffffffffffffffffffffffff168173ffffffffffffffffffffffffffffffffffffffff1603610b8f5760006040517f1e4fbdf7000000000000000000000000000000000000000000000000000000008152600401610b869190611c8a565b60405180910390fd5b610b9881610f85565b50565b60007f01ffc9a7000000000000000000000000000000000000000000000000000000007bffffffffffffffffffffffffffffffffffffffffffffffffffffffff1916827bffffffffffffffffffffffffffffffffffffffffffffffffffffffff1916149050919050565b600080610c118361146e565b9050600073ffffffffffffffffffffffffffffffffffffffff168173ffffffffffffffffffffffffffffffffffffffff1603610c8457826040517f7e273289000000000000000000000000000000000000000000000000000000008152600401610c7b9190611da0565b60405180910390fd5b80915050919050565b60006004600083815260200190815260200160002060009054906101000a900473ffffffffffffffffffffffffffffffffffffffff169050919050565b600033905090565b610cdf83838360016114ab565b505050565b600080610cf08461146e565b9050600073ffffffffffffffffffffffffffffffffffffffff168373ffffffffffffffffffffffffffffffffffffffff1614610d3257610d31818486611670565b5b600073ffffffffffffffffffffffffffffffffffffffff168173ffffffffffffffffffffffffffffffffffffffff1614610dc357610d746000856000806114ab565b6001600360008373ffffffffffffffffffffffffffffffffffffffff1673ffffffffffffffffffffffffffffffffffffffff168152602001908152602001600020600082825403925050819055505b600073ffffffffffffffffffffffffffffffffffffffff168573ffffffffffffffffffffffffffffffffffffffff1614610e46576001600360008773ffffffffffffffffffffffffffffffffffffffff1673ffffffffffffffffffffffffffffffffffffffff168152602001908152602001600020600082825401925050819055505b846002600086815260200190815260200160002060006101000a81548173ffffffffffffffffffffffffffffffffffffffff021916908373ffffffffffffffffffffffffffffffffffffffff160217905550838573ffffffffffffffffffffffffffffffffffffffff168273ffffffffffffffffffffffffffffffffffffffff167fddf252ad1be2c89b69c2b068fc378daa952ba7f163c4a11628f55a4df523b3ef60405160405180910390a4809150509392505050565b610f06610cca565b73ffffffffffffffffffffffffffffffffffffffff16610f24610861565b73ffffffffffffffffffffffffffffffffffffffff1614610f8357610f47610cca565b6040517f118cdaa7000000000000000000000000000000000000000000000000000000008152600401610f7a9190611c8a565b60405180910390fd5b565b6000600660009054906101000a900473ffffffffffffffffffffffffffffffffffffffff16905081600660006101000a81548173ffffffffffffffffffffffffffffffffffffffff021916908373ffffffffffffffffffffffffffffffffffffffff1602179055508173ffffffffffffffffffffffffffffffffffffffff168173ffffffffffffffffffffffffffffffffffffffff167f8be0079c531659141344cd1fd0a4f28419497f9722a3daafe3b4186f6b6457e060405160405180910390a35050565b600073ffffffffffffffffffffffffffffffffffffffff168273ffffffffffffffffffffffffffffffffffffffff16036110bc57816040517f5b08ba180000000000000000000000000000000000000000000000000000000081526004016110b39190611c8a565b60405180910390fd5b80600560008573ffffffffffffffffffffffffffffffffffffffff1673ffffffffffffffffffffffffffffffffffffffff16815260200190815260200160002060008473ffffffffffffffffffffffffffffffffffffffff1673ffffffffffffffffffffffffffffffffffffffff16815260200190815260200160002060006101000a81548160ff0219169083151502179055508173ffffffffffffffffffffffffffffffffffffffff168373ffffffffffffffffffffffffffffffffffffffff167f17307eab39ab6107e8899845ad3d59bd9653f200f220920489ca2b5937696c31836040516111ad9190611b19565b60405180910390a3505050565b60008373ffffffffffffffffffffffffffffffffffffffff163b1115611364578273ffffffffffffffffffffffffffffffffffffffff1663150b7a02868685856040518563ffffffff1660e01b8152600401611219949392919061224e565b6020604051808303816000875af192505050801561125557506040513d601f19601f8201168201806040525081019061125291906122af565b60015b6112d9573d8060008114611285576040519150601f19603f3d011682016040523d82523d6000602084013e61128a565b606091505b5060008151036112d157836040517f64a0ae920000000000000000000000000000000000000000000000000000000081526004016112c89190611c8a565b60405180910390fd5b805181602001fd5b63150b7a0260e01b7bffffffffffffffffffffffffffffffffffffffffffffffffffffffff1916817bffffffffffffffffffffffffffffffffffffffffffffffffffffffff19161461136257836040517f64a0ae920000000000000000000000000000000000000000000000000000000081526004016113599190611c8a565b60405180910390fd5b505b5050505050565b606060405180602001604052806000815250905090565b60606000600161139184611734565b01905060008167ffffffffffffffff8111156113b0576113af611e31565b5b6040519080825280601f01601f1916602001820160405280156113e25781602001600182028036833780820191505090505b509050600082602001820190505b600115611445578080600190039150507f3031323334353637383961626364656600000000000000000000000000000000600a86061a8153600a8581611439576114386122dc565b5b049450600085036113f0575b819350505050919050565b61146a828260405180602001604052806000815250611887565b5050565b60006002600083815260200190815260200160002060009054906101000a900473ffffffffffffffffffffffffffffffffffffffff169050919050565b80806114e45750600073ffffffffffffffffffffffffffffffffffffffff168273ffffffffffffffffffffffffffffffffffffffff1614155b156116185760006114f484610c05565b9050600073ffffffffffffffffffffffffffffffffffffffff168373ffffffffffffffffffffffffffffffffffffffff161415801561155f57508273ffffffffffffffffffffffffffffffffffffffff168173ffffffffffffffffffffffffffffffffffffffff1614155b801561157257506115708184610a81565b155b156115b457826040517fa9fbf51f0000000000000000000000000000000000000000000000000000000081526004016115ab9190611c8a565b60405180910390fd5b811561161657838573ffffffffffffffffffffffffffffffffffffffff168273ffffffffffffffffffffffffffffffffffffffff167f8c5be1e5ebec7d5bd14f71427d1e84f3dd0314c0f7b2291e5b200ac8c7c3b92560405160405180910390a45b505b836004600085815260200190815260200160002060006101000a81548173ffffffffffffffffffffffffffffffffffffffff021916908373ffffffffffffffffffffffffffffffffffffffff16021790555050505050565b61167b8383836118ab565b61172f57600073ffffffffffffffffffffffffffffffffffffffff168373ffffffffffffffffffffffffffffffffffffffff16036116f057806040517f7e2732890000000000000000000000000000000000000000000000000000000081526004016116e79190611da0565b60405180910390fd5b81816040517f177e802f00000000000000000000000000000000000000000000000000000000815260040161172692919061230b565b60405180910390fd5b505050565b600080600090507a184f03e93ff9f4daa797ed6e38ed64bf6a1f0100000000000000008310611792577a184f03e93ff9f4daa797ed6e38ed64bf6a1f0100000000000000008381611788576117876122dc565b5b0492506040810190505b6d04ee2d6d415b85acef810000000083106117cf576d04ee2d6d415b85acef810000000083816117c5576117c46122dc565b5b0492506020810190505b662386f26fc1000083106117fe57662386f26fc1000083816117f4576117f36122dc565b5b0492506010810190505b6305f5e1008310611827576305f5e100838161181d5761181c6122dc565b5b0492506008810190505b612710831061184c576127108381611842576118416122dc565b5b0492506004810190505b6064831061186f5760648381611865576118646122dc565b5b0492506002810190505b600a831061187e576001810190505b80915050919050565b611891838361196c565b6118a661189c610cca565b60008585856111ba565b505050565b60008073ffffffffffffffffffffffffffffffffffffffff168373ffffffffffffffffffffffffffffffffffffffff161415801561196357508273ffffffffffffffffffffffffffffffffffffffff168473ffffffffffffffffffffffffffffffffffffffff16148061192457506119238484610a81565b5b8061196257508273ffffffffffffffffffffffffffffffffffffffff1661194a83610c8d565b73ffffffffffffffffffffffffffffffffffffffff16145b5b90509392505050565b600073ffffffffffffffffffffffffffffffffffffffff168273ffffffffffffffffffffffffffffffffffffffff16036119de5760006040517f64a0ae920000000000000000000000000000000000000000000000000000000081526004016119d59190611c8a565b60405180910390fd5b60006119ec83836000610ce4565b9050600073ffffffffffffffffffffffffffffffffffffffff168173ffffffffffffffffffffffffffffffffffffffff1614611a605760006040517f73c6ac6e000000000000000000000000000000000000000000000000000000008152600401611a579190611c8a565b60405180910390fd5b505050565b6000604051905090565b600080fd5b600080fd5b60007fffffffff0000000000000000000000000000000000000000000000000000000082169050919050565b611aae81611a79565b8114611ab957600080fd5b50565b600081359050611acb81611aa5565b92915050565b600060208284031215611ae757611ae6611a6f565b5b6000611af584828501611abc565b91505092915050565b60008115159050919050565b611b1381611afe565b82525050565b6000602082019050611b2e6000830184611b0a565b92915050565b600081519050919050565b600082825260208201905092915050565b60005b83811015611b6e578082015181840152602081019050611b53565b60008484015250505050565b6000601f19601f8301169050919050565b6000611b9682611b34565b611ba08185611b3f565b9350611bb0818560208601611b50565b611bb981611b7a565b840191505092915050565b60006020820190508181036000830152611bde8184611b8b565b905092915050565b6000819050919050565b611bf981611be6565b8114611c0457600080fd5b50565b600081359050611c1681611bf0565b92915050565b600060208284031215611c3257611c31611a6f565b5b6000611c4084828501611c07565b91505092915050565b600073ffffffffffffffffffffffffffffffffffffffff82169050919050565b6000611c7482611c49565b9050919050565b611c8481611c69565b82525050565b6000602082019050611c9f6000830184611c7b565b92915050565b611cae81611c69565b8114611cb957600080fd5b50565b600081359050611ccb81611ca5565b92915050565b60008060408385031215611ce857611ce7611a6f565b5b6000611cf685828601611cbc565b9250506020611d0785828601611c07565b9150509250929050565b600080600060608486031215611d2a57611d29611a6f565b5b6000611d3886828701611cbc565b9350506020611d4986828701611cbc565b9250506040611d5a86828701611c07565b9150509250925092565b600060208284031215611d7a57611d79611a6f565b5b6000611d8884828501611cbc565b91505092915050565b611d9a81611be6565b82525050565b6000602082019050611db56000830184611d91565b92915050565b611dc481611afe565b8114611dcf57600080fd5b50565b600081359050611de181611dbb565b92915050565b60008060408385031215611dfe57611dfd611a6f565b5b6000611e0c85828601611cbc565b9250506020611e1d85828601611dd2565b9150509250929050565b600080fd5b600080fd5b7f4e487b7100000000000000000000000000000000000000000000000000000000600052604160045260246000fd5b611e6982611b7a565b810181811067ffffffffffffffff82111715611e8857611e87611e31565b5b80604052505050565b6000611e9b611a65565b9050611ea78282611e60565b919050565b600067ffffffffffffffff821115611ec757611ec6611e31565b5b611ed082611b7a565b9050602081019050919050565b82818337600083830152505050565b6000611eff611efa84611eac565b611e91565b905082815260208101848484011115611f1b57611f1a611e2c565b5b611f26848285611edd565b509392505050565b600082601f830112611f4357611f42611e27565b5b8135611f53848260208601611eec565b91505092915050565b60008060008060808587031215611f7657611f75611a6f565b5b6000611f8487828801611cbc565b9450506020611f9587828801611cbc565b9350506040611fa687828801611c07565b925050606085013567ffffffffffffffff811115611fc757611fc6611a74565b5b611fd387828801611f2e565b91505092959194509250565b60008060408385031215611ff657611ff5611a6f565b5b600061200485828601611cbc565b925050602061201585828601611cbc565b9150509250929050565b7f4e487b7100000000000000000000000000000000000000000000000000000000600052602260045260246000fd5b6000600282049050600182168061206657607f821691505b6020821081036120795761207861201f565b5b50919050565b60006060820190506120946000830186611c7b565b6120a16020830185611d91565b6120ae6040830184611c7b565b949350505050565b600081905092915050565b60006120cc82611b34565b6120d681856120b6565b93506120e6818560208601611b50565b80840191505092915050565b60006120fe82856120c1565b915061210a82846120c1565b91508190509392505050565b7f4d7573742073656e6420736f6d65206574686572000000000000000000000000600082015250565b600061214c601483611b3f565b915061215782612116565b602082019050919050565b6000602082019050818103600083015261217b8161213f565b9050919050565b7f4e487b7100000000000000000000000000000000000000000000000000000000600052601160045260246000fd5b60006121bc82611be6565b91507fffffffffffffffffffffffffffffffffffffffffffffffffffffffffffffffff82036121ee576121ed612182565b5b600182019050919050565b600081519050919050565b600082825260208201905092915050565b6000612220826121f9565b61222a8185612204565b935061223a818560208601611b50565b61224381611b7a565b840191505092915050565b60006080820190506122636000830187611c7b565b6122706020830186611c7b565b61227d6040830185611d91565b818103606083015261228f8184612215565b905095945050505050565b6000815190506122a981611aa5565b92915050565b6000602082840312156122c5576122c4611a6f565b5b60006122d38482850161229a565b91505092915050565b7f4e487b7100000000000000000000000000000000000000000000000000000000600052601260045260246000fd5b60006040820190506123206000830185611c7b565b61232d6020830184611d91565b939250505056fea2646970667358221220b8a765968f23e740519c7415d93505c84db4f3a12cb1144da91510b63aafb7de64736f6c63430008140033",
  "linkReferences": {},
  "deployedLinkReferences": {}
}